:020000040000FA
:100000000040002095830100D1830100D3830100CB
:1000100000000000000000000000000000000000E0
:10002000000000000000000000000000D583010077
:100030000000000000000000D7830100D983010008
:10004000DB83010065AD000021880100DB83010036
:10005000DB83010000000000DB830100DB83010083
:1000600019320000918D0100DB830100DB83010068
:10007000DB830100DB830100DB830100DB83010004
:10008000DB830100DB830100DB830100DB830100F4
:10009000DB830100597F01002580010055330000FA
:1000A00065330000DB830100000000000000000059
:1000B0000000000000000000000000000000000040
:1000C00010B5064C2378002B07D1054B002B02D02E
:1000D000044800E000BF0123237010BD800200200F
:1000E00000000000C07A0300044B10B5002B03D0C1
:1000F0000349044800E000BF10BDC04600000000F6
:1001000084020020C07A0300164B002B00D1144B50
:100110009D46402292029A1A924600218B460F4633
:100120001348144A121A27F061FF0F4B002B00D01E
:1001300098470E4B002B00D0984700200021040068
:100140000D000D48002802D00C4800E000BF1FF051
:1001500041F82000290027F0BCFC1EF087FFC046B4
:100160000000080000400020000000000000000027
:1001700078020020D42F00200000000000000000C2
:1001800070B50CF021FB0F4C0F4B0025A3620F4BF9
:10019000E562636323002563A83303210C481D60D7
:1001A000A5640EF009F80B4E012130000EF004F8A2
:1001B0003000094A094922F01BF926606660E565AE
:1001C00070BDC046742E0020E492020094AB020081
:1001D000AC2E0020C02E0020760F0000860F0000FD
:1001E00070B50624134EC3001C437368002205003B
:1001F0002100181D14F0FEFC021E18D1F06D00281D
:1002000007D00430210014F0F5FC002801D040682C
:1002100070BD00222100084814F0ECFC021E06D13B
:100220002A000649064801F0BBFF08F02FFE50687F
:10023000EEE7C046742E0020308D020099EF0200D8
:10024000989302000A4B10B5040018685B68984246
:100250000AD00621E30019430430002214F0CAFC3E
:10026000002801D0406810BD2000FFF7B9FFFAE771
:10027000742E0020074B10B5D86D002801D1064818
:1002800010BD04300022054914F0B4FC0028F6D05B
:100290004068F5E7742E0020F88B0200DE0E0000A7
:1002A0000A00C100062010B5024B0143186822F075
:1002B0009FF810BD742E0020062110B5034BC0001E
:1002C0000143186822F09EF810BDC046742E00202D
:1002D0000A00C100062010B5024B0143586822F005
:1002E00087F810BD742E0020062110B5034BC00006
:1002F0000143586822F086F810BDC046742E0020D5
:1003000037B505000C00062806D1080014F0A4FB40
:1003100000280DD02C483EBDCB071BD54B10042820
:1003200016D818F049FE03154E4E0700002BF1D0E9
:100330002648F0E7C0221206934204D18020C0056F
:1003400022F062FAE7E75B425B0001201843E2E734
:10035000DB43F9E702281AD11D4B0B40062B08D0CE
:100360008B0714D10A681B4B92699A420FD14868D7
:1003700002E0C80821F09CFD002806D101A9200058
:1003800004F0E4FB01990CF00DFA4300DDE72000D6
:1003900014F03CF94369002B0DD10F4BAD00200048
:1003A000ED5825F0D5FA2A0003000C490C4801F05D
:1003B000F7FE08F06BFD2100280098470028AAD11D
:1003C000EBE70800A7E7C046909702009897020065
:1003D000070080FF25590000ACB9020025F002009B
:1003E00078950200F7B50400019116001F0014F083
:1003F0000DF90569002D09D1200025F0A9FA06495B
:100400000200064801F0CCFE08F040FD3B0032003F
:1004100001992000A847FEBD2CEF0200789502004C
:10042000F8B50E0015001C00930714D113681E4A7E
:10043000934202D16B682360F8BD1C4A934207D1F6
:10044000002802D014F0E2F806006B6848C4F3E715
:10045000174A934201D12560EEE75A68022117003E
:100460008F4314498F4202D013498A42F3D10028A6
:1004700017D1124A93420BD0114A934208D0114A25
:10048000934205D0104A934202D0104A934208D1B9
:100490000C2021F046FD0E4B466003608560206015
:1004A000CAE725606060C7E7F8B80200BCB8020080
:1004B00070B90200450200001A020000B8D502001F
:1004C000F4D5020030D602006CD60200A8D6020095
:1004D000C8850200F8B500231360536006000D00C4
:1004E000140014F093F8F92307005B009D4205D136
:1004F000836A002B02D00F4B48C4F8BDFB69002B68
:1005000004D02200290030009847F6E7B86B002895
:10051000F3D00621ED00294304301A0014F06AFBE1
:100520000028EAD04268230039003000FFF778FF46
:10053000E3E7C046C08C020070B5160004000D0051
:10054000FFF7C8FF3368002B15D10B4EA3070BD163
:100550000A4B22689A4207D12B0062680849300092
:1005600001F01EFE08F092FC200025F0F1F92B00AE
:1005700002000449F3E770BDC890020070B90200A0
:10058000B2EF0200D9EF020073B504000D001600AF
:1005900014F03CF8C369002B09D0042201960092A4
:1005A00029006A4620009847009B002B0AD02000B3
:1005B00025F0CEF92B0002000349044801F0F0FDBC
:1005C00008F064FC73BDC046D9EF0200C890020079
:1005D00073B504000D0014F019F8174B426A0600B9
:1005E0009A4226D0002D03D1102021F09AFC05005C
:1005F000736A002B12D1E6216A46FF312000FFF713
:1006000069FF009B002B0FD1200025F0A1F90B49B9
:1006100002000B4801F0C4FD08F038FC290020005E
:1006200098470028E7D076BD2900684606F090FA82
:10063000F9E72000F7E7C0467D59020048EF0200C5
:100640007895020037B5040013F0E0FF856A002DAD
:1006500002D02000A8473EBDF9216A46490020008B
:10066000FFF738FF009B002B05D06A4629002800C1
:100670001FF0ABFCEFE7200025F06AF90349020008
:10068000034801F08DFD08F001FCC0467AEF02003E
:100690007895020030B505008FB00FF039FB2800C7
:1006A00013F0B4FF846A002C05D02800A047040092
:1006B00020000FB030BDF9216A4649002800FFF73D
:1006C00009FF009B002B16D002A808F0B9FB0028F8
:1006D00007D16A4601001FF078FC040008F0CEFB49
:1006E000E6E7039B084918680AF0EEFF0028DFD10F
:1006F000039808F0CBFB280025F02AF903490200F3
:10070000034801F04DFDF4E7C49402007AEF0200C3
:1007100078950200F0B513688FB00793002800D0D9
:1007200073E00400131D0393FF220B00090A13401A
:10073000114001934B000693069A019B05919B186B
:10074000039A9B00D2580492039AD3185F68381E0C
:1007500009D00020BB0706D1944B3A689A4202D1D7
:10076000380021F042FE059B1818049B4600002B20
:1007700050D1019B581C83199800009321F0D1FBA4
:1007800026000500002C01D001260460019BB0006A
:100790009A002818039927F00DFC019B9B190293DE
:1007A000029B9800059B2818DA00019B9900039B87
:1007B000591827F0FFFB029A069B94466344019365
:1007C000002F12D003243C4000D0A9E0774B3A68B8
:1007D0009A4200D0A4E0380021F01FFE0323060057
:1007E000009373689C4200D27DE0019B029A0299BB
:1007F0009A1A52082B000798FFF7F4FD040028000E
:1008000021F0BEFB20000FB0F0BD130008330393AE
:10081000546889E7049B9B072FD1049B644A1B689B
:10082000934202D0634A934227D10AAA09A90498A5
:1008300014F076F8099B581C019BC0188319980086
:10084000009321F06EFB26000500002C01D001264C
:100850000460019BB0009A000399281827F0AAFBB6
:10086000019B0A999819099B80009A00281827F083
:10087000A1FB019B099A9B1890E7019B181D831906
:100880009800009321F04DFB26000500002C01D0BC
:1008900001260460019BB0009A000399281827F0F4
:1008A00089FB019B0AA99B1904980293FFF790FE0C
:1008B000029B04909C000498FFF7ECFE061E00D1FA
:1008C0006EE7009B029A934207D8D900280021F0D6
:1008D00046FB0500009B5B000093029B2E510133F9
:1008E00002930434E7E7B368E700D859002815D02D
:1008F000042813D0009B184205D12F4B02689A425E
:1009000001D120F0D8FA019B019A9B00E8500232F5
:100910000192B268EB18D7197A685A60013460E71F
:100920000AAA26493800FFF707FE00210AAA080094
:100930001FF04BFB0021FFF74BFE019B03909E0035
:100940000398FFF7A7FE041E00D14EE7019B009A13
:1009500001339A420BD853000093042B01D2042395
:100960000093009B2800990021F0F9FA0500032369
:100970001C4207D1104B22689A4203D1200020F07C
:100980009AFA0400E6210AAAFF313800FFF7D4FDE5
:100990000AAA002101200C941FF017FB019BAC5107
:1009A00002330193AB1958600836C9E7B8CE02008C
:1009B0009CAB020064990200B4B002006B0200001C
:1009C00070B50C0086B0160083071CD10368204A5E
:1009D000934202D01F4A934215D102AA01A913F0F3
:1009E0009FFF019BA3422CD31BD80023029DA00094
:1009F000A34201D106B070BD9900421A043AAA5828
:100A000001337250F4E702A9FFF7E2FD002305006D
:100A10000193019B2800A34206D3FFF73BFE002869
:100A2000E8D022000C490EE0FFF734FE002808D081
:100A3000019A0A49A31A5B189B000132985101924E
:100A4000E7E7019A0649074801F0AAFB08F01EFAF9
:100A50009CAB02006499020066F00200FFFFFF3FBA
:100A600043F00200F0950200F7B5FF240E00090ADA
:100A7000264015000C40830731D10368384A934261
:100A800002D0384A93422AD101AA694613F048FF9E
:100A90000098331983425BD883009C460023019958
:100AA0009A00A3420FD1B400801B0919C01AAD18D7
:100AB0001FF062FF019B28601C19002301360133DF
:100AC0009E4207D1F7BD6746BF1A043FCF59013395
:100AD000AF50E5E79A0051426158A950EFE7002175
:100AE000FFF776FD002307000093009BB34218D365
:100AF000002108001FF040FF06003800FFF7CAFD84
:100B0000011E1BD1B168A14222D3A3008A00EB18B9
:100B10001E60AA18091B9D4214D130001FF048FF27
:100B2000D0E73800FFF7B6FD002811D0009AB31ABD
:100B30001B199B00013258510092D6E7300002F099
:100B4000D1FFDAE7F468D01A2058043B1860E2E7D6
:100B5000009A0549054801F023FB08F097F9C046C3
:100B60009CAB02006499020043F00200F095020081
:100B7000F0B591B01D0006000C00170013F046FD03
:100B8000334B984207D12B003A002100300014F07B
:100B9000EDF911B0F0BD826A2E4B002A08D09C42BC
:100BA00030D13000904728600028F2D00120F0E7D3
:100BB0009C4227D1F92101AA49003000FFF78AFCA5
:100BC000019B002B0DD1D72101AA49003000FFF76E
:100BD000B3FC039401AA002101201FF0F6F928605C
:100BE000E4E704A808F02CF9002807D101AA0100C5
:100BF0001FF0EBF9286008F041F9D7E7059B2B605F
:100C00000220C6E7002CDED1380013F0FFFC1249A9
:100C10000AF05AFD01AA00280ED010493000FFF753
:100C200059FC019B002B11D001AA210020001FF0CC
:100C3000CCF928602000ACE7B32130008900FFF731
:100C400049FC019B002B01D00397C3E72F60D7E736
:100C5000E4DC0200B0E00200B891020019020000DA
:100C600010B5040001F0E2FA002808D000232000AB
:100C70001A001900FFF7B6FB0400200010BD200089
:100C80001FF0D1FA0028F8D1024903481FF0C7FA33
:100C9000F2E7C046FBEF0200789502007FB5C30083
:100CA00006201843054B01900491052001A90293E9
:100CB0000393059209F068FC07B000BDB0E00200A4
:100CC0001423F0B58DB000AFFA1805000C00FFF743
:100CD00001FCBB69002B06D022002C492C4801F0F6
:100CE0005FFA08F0D3F8786900284CD1280020F08A
:100CF00056FD0028F0D01423F821FA1828004900E6
:100D0000FFF7E8FB10227869B91804F03DFBB860E2
:100D1000200021F0D2F86A463E69B968731C7B60F6
:100D2000C318FB600E33DB08DB00D31A9D466D460B
:100D30003200280027F03EF92E23AB557B682000B7
:100D4000EB18BB6021F0BEF80600200021F0B5F8DA
:100D500031000200B86827F02DF9F96828000BF07F
:100D600071FDC300062018430A4B10223B627B62D0
:100D7000094BBA18BB620123FB620B33F861D1182F
:100D8000052009F001FCBD460DB0F0BD64EF020086
:100D9000F4910200B0E0020098970200F0B5174C01
:100DA0000F00616895B003912168060008A80491BE
:100DB0006260236008F044F8051E06D0039B099882
:100DC0006360049B236008F061F833683A003100E7
:100DD00005A801930BF07AFA2B002A00019905A8C7
:100DE00011F0AEFE1FF0E2F8050008F047F8280009
:100DF000039B6360049B236015B0F0BD742E00203C
:100E000010B5040012F042FA031E054802D005494D
:100E10001FF017F92200044901F0C2F908F036F872
:100E20005C9302008AEE0200B3EE0200010010B5EE
:100E300001481FF006F9C046F0950200F0B58BB0EE
:100E400004900F000392202803D191420FD0AF4E9F
:100E5000BFE0049B1B2B01D01E2B0DD10399380042
:100E600013F06AFC049B002803D01B2BEFD1A84E83
:100E7000AFE01B2BFBD1EAE7049B212B3FD103986A
:100E800001F0D4F9002806D0039938001FF0D1F9F9
:100E90000028ECD1DBE70324039B1C4005D1039A17
:100EA0009C4B126805929A4223D0049B9A4A9B005D
:100EB00038009C5824F04CFD0500039824F048FDB0
:100EC0002B00009022009549954801F069F947E10F
:100ED000039AA300D3189D68280001F0A7F9002801
:100EE00000D158E1290038001FF0A3F90028BED135
:100EF0000134039B5B680593A342E9D8A7E7012669
:100F0000314200D116E1039B4D101E4000D1E7E0B5
:100F10005C10049B1D2BC8D8180018F057F81E0051
:100F200028002A002D0045004C004E0050005D00B6
:100F300066007B008300B4001E0028002A002D00FC
:100F400045004C004E0050005D0066007B008300B1
:100F5000CC00D000C6FFD400D80025432E0070007E
:100F60000300734000D5B6E00126064331E065403A
:100F7000F4E72C402600F2E7002C02DA6948FFF77C
:100F800055FF1F2C08DC684B2341AB4204DBC02318
:100F90001B062341AB4205DDE917280021F025FCA3
:100FA00007004BE0A540D9E7002CE7DB1F2C00DD54
:100FB0001F242541D2E72E19D1E72E1BCFE72100B0
:100FC000280000F045FA0028E6D1012665436D00AF
:100FD0002E4330000BB0F0BD002C00D1DDE021002D
:100FE00028001FF0ACF80600B9E7002C00D1D4E0CF
:100FF000280019F07BF9051C200019F077F9011C75
:10100000281C18F06FFC032302269843474B064325
:10101000F618DEE7002C00D1BFE0210028001FF009
:101020007EF8E0E72F00002C2ADA280019F05EF99C
:101030000323022798433D4B0743FF18380013F062
:10104000E5FA8369002B00D12FE7039A3900049851
:10105000984756E001231C4206D03900300000F0CA
:10106000F7F9002898D17E43012C00D177E73900A9
:101070003800641000F0ECF9002800D08CE77F43C2
:10108000002CE7D16BE7002C00D186E00021022084
:1010900006F068FC2100060028001FF050F8012728
:1010A00040003843B060210028001FF038F8B840F5
:1010B0000743F7608DE7A54200DAD8E6C7E6A54208
:1010C00000DDD4E6C3E6A54200DCD0E6BFE6A542DB
:1010D00000DBCCE6BBE6300021F096FB060078E7AB
:1010E0000323039A1340022B24D1114B1340062BE8
:1010F00020D0280019F0FAF8039A011C04980EF089
:1011000061F8061E00D064E7CFE6C0469097020063
:10111000989702009CAB020024B80200F6EE020091
:1011200078950200E1EE0200FFFFFF3F00008080A3
:10113000070080FF049B1F2B00D07FE7039813F06C
:1011400065FA83690400002B0CD1636A002B11D16E
:10115000039824F0FDFB13490200134801F020F826
:1011600007F094FE3A00039904989847061E00D0B1
:101170002FE7EAE706A90398FFF72AFA0400200000
:10118000FFF788FA002800D161E6390013F0D4FA9D
:101190000028F4D06BE6039587E6044904481EF066
:1011A00050FFC04648EF0200789502001BEF020096
:1011B0002C960200010010B501481EF042FFC04607
:1011C00078950200F8B504000D0017001E000029F4
:1011D00008D0186813F01AFA6368834202D00548F1
:1011E000FFF7E8FF33003A002900A068FFF7FAF89C
:1011F000F8BDC04672EE020001214000014310B567
:1012000002481FF005F807F041FEC04610940200A6
:10121000010010B501481EF014FFC046D49302002F
:1012200070B504000D0010491FF042F969680122F1
:10123000200013F003FA0D4E200031001FF038F9A2
:10124000A9680122200013F0F9F9310020001FF0F5
:101250002FF9E9680122200013F0F0F90449200079
:101260001FF026F970BDC0468EF0020095F0020016
:101270008772030070B5060010200D00140020F0E6
:1012800050FE034B466085600360C46070BDC0467D
:101290000486020000237F2803D8034B1B5C9B07B6
:1012A000DB0F18007047C04698F0020000237F282B
:1012B00003D8034B1B5C1B07DB0F18007047C046AD
:1012C00098F0020000237F2803D8034B1B5C5B07C8
:1012D000DB0F18007047C04698F0020000237F28FB
:1012E00003D8034B1B5C5B06DB0F18007047C0463E
:1012F00098F0020000227F2808D8054B0132195CC3
:101300000C23194202D15F3842424241100070471B
:1013100098F0020000237F2803D8034B1B5CDB06F8
:10132000DB0F18007047C04698F0020000237F28AA
:1013300003D8034B1B5C9B06DB0F18007047C046AD
:1013400098F00200C3790248002B00D10148704791
:10135000989702009097020010B502F0ADF801488E
:1013600010BDC046B0E0020010B5086802F0A4F855
:10137000004810BDB0E0020073B50D00022836D160
:10138000012601A9686803F0FFFF76423400019B43
:10139000C318834212D101A9286803F0F5FF7342F4
:1013A000734162426241DBB2D2B2019902F0C8F9E4
:1013B000002820D1104911481EF043FE0278722AFD
:1013C00001D0772A06D1611C0ED1723A54425441A1
:1013D0000130DEE7622A01D0742A05D1711C03D1E5
:1013E000743A56425641F3E70548FFF71FFD0126C0
:1013F00076423400CFE776BD25F10200109402005A
:1014000018F1020070B5040013F000F900230C4934
:10141000DA0052181568A54205D1516809481FF035
:1014200047F8012070BD0133602BF1D1064B9C427F
:1014300003D0984201D00020F4E70449EEE7C0460B
:1014400060870200DC97020020A6020034F102004F
:1014500070B506000D00002814DD002907DD1548D1
:1014600017F048FE0124B04209DB002407E0010028
:10147000C020000617F03EFE0124A842F5DDE4B2CC
:10148000200070BD002907DDC020000617F032FEE5
:101490000124B042F3DCE8E70024A042F0D00100D0
:1014A000044817F027FE0123A84200DC231CDCB20D
:1014B000E6E7C046FFFFFF3F044B054A98331B6831
:1014C00004481A60044A9A807047C046742E00206F
:1014D00078000400B0E0020004040000084A10B5DF
:1014E000130098331B689979002908D0916C002962
:1014F000F9D0002199711B69587905F0A1F810BD48
:10150000742E002013B5084C98342368188821F0F5
:101510007BF923680090588821F076F9694601909C
:10152000022006F01FFA16BD742E002010B50D4CD7
:10153000002803D0086807F07DFF04000A49200056
:101540000DF0F0FA6079002105F07AF820000DF036
:10155000D3FA0022054B064898331B681A619A712A
:1015600010BDC046A0B3020008D10200742E0020B6
:10157000B0E002001FB50C4B02AC009301940223B3
:1015800004F0B6FE029A002A03D0084B98331B6879
:101590005A806268002A03D0044B98331B681A8073
:1015A000034804B010BDC046A08B0200742E00207A
:1015B000B0E00200F0B5254B89B004AC0093019473
:1015C000042304F095FE224F224A3B0098331B6807
:1015D00004989A80204B0340062B06D0830730D115
:1015E00002681E4B92699A422BD101230394029305
:1015F000002598373B6818690DF07EFA3B686068F3
:101600001D6107F017FF164906000DF08BFA3B68C5
:10161000144A9D71126802999A60227B9981DA714D
:10162000DD81039A012900D112685A6101221E61ED
:101630009A71237A002B01D0FFF750FF0A4809B0B6
:10164000F0BD03AA02A913F06BF9D1E7608B020089
:10165000742E002004040000070080FF25590000BC
:1016600008D102006C2E0020B0E00200F0B5274B3C
:1016700089B004AD01950093042304F039FE6B6832
:10168000A868049E039307F0D5FE214F0400983705
:101690003B6818690DF030FA00223B681D491A6159
:1016A00020000DF03FFA607980212D7B04F0C8FF07
:1016B000002E1CD1607905F043F8039B002B13DB4F
:1016C0000022134B144998331B6803989A710968D8
:1016D000DA714118DA605A61023299601C619A71BC
:1016E000002D01D0FFF7FAFE0C4809B0F0BD310023
:1016F0000B4817F075FC04F07FFF0028DDD06079FF
:1017000005F01EF80748FFF791FBC046808B0200EA
:10171000742E002008D102006C2E0020B0E00200E0
:1017200040420F00E016030010B5182020F0F9FB2E
:10173000064B98331860064B0360064B83800023EA
:10174000837103614361044810BDC046742E0020BC
:101750007800040004040000B0E00200F0B56D4C15
:1017600087B0260098363368002B40D09A79002A3B
:101770003DD0694D99682A68914238D89A79022AF1
:101780000BD11B690021587904F05AFF2B6832688D
:101790000A3393600123937129E09A79012A26D1B3
:1017A0009A89D989914204D3DD79002D19D000217D
:1017B000D9815869012A02D0DA8992001058574A13
:1017C000904216D11B6900215879983404F038FFF3
:1017D00024685348218817F08DFC0123A060A37171
:1017E00005E09D7118690DF087F933681D6107B038
:1017F000F0BD05A903F0C8FD9834236801901B696A
:10180000802158790293059E04F01AFF019B2468F9
:101810001F781F23218842481F4017F06BFC618806
:1018200017F068FC7D1EEDB20390012E5AD9019B82
:101830005B78232B4DD0622B50D1002D4BD0023F33
:10184000FDB26A1E53425A415242022E4ED001212D
:1018500002230198C05C3A2803D00F27384020713A
:101860000133207984469E420ED90198C05C3A2803
:101870000AD1581C864207D9019F0233385C0F27D2
:1018800038409E4235D86071092D3DD86346043BEF
:101890009A1852B26F00234B002900D1224BD85B1B
:1018A000002A2EDB104104F0A7FE1A4B039998334F
:1018B0001A68537959430B0017490A3B09680A2BE8
:1018C00000DA0A235B189360D3890133D3810223A2
:1018D00061E70022B9E72A000625B6E700210123C7
:1018E0000A00B6E7002101230A00BAE7330001210C
:1018F000B7E70A267043019E6071F65C3E4080198E
:10190000C1E752429040CEE7029B0021587904F093
:1019100097FECAE7742E00206C2E0020B0E0020073
:1019200060EA000042E9020034E90200014B586815
:101930007047C046742E0020014B18687047C0469F
:10194000742E0020F0B5194E87B0336805000020D2
:101950000C00019320F013FD3060009020681EF011
:1019600025FB019B07003360114E022D03D0A068B8
:1019700012F04CFE0600210063680831A81E039394
:1019800005F0F0FF009B04900593002203AB0321B8
:101990003000FEF727FD074B04009F4203D00100F3
:1019A00038001FF0E8FE200007B0F0BD742E0020C4
:1019B00070B90200B0E002001FB56946FEF708FEEC
:1019C00004002000FEF766FE002802D1044804B09F
:1019D00010BD13F041F80028F3D10248F7E7C046E4
:1019E00098970200909702001FB56946FEF7F0FD38
:1019F00004002000FEF74EFE002802D1044804B087
:101A000010BD13F029F80028F3D00248F7E7C046CC
:101A1000909702009897020010B512F07BFE034BDE
:101A2000002800D1024B180010BDC0469897020054
:101A30009097020037B512F0D1FE01AB7F2806D88F
:101A4000012118700122180003F046F83EBD1E491E
:101A5000820988420BD8402149420A431A703F222A
:101A6000024080204042104358704231EAE7174C50
:101A7000010BA0420ED8202464422143197080211A
:101A80005F344942224020400A43014399705A7012
:101A90000321D7E70E4CA04212D81024850C6442D3
:101AA0002C431C703F258024294064422A40284052
:101AB00021432243204359709A70D8700421C1E712
:101AC0000448FFF7B3F9C046FF070000FFFF00001E
:101AD000FFFF1000EE160300F0B589B0019204007C
:101AE0000D0000222F490198029313F083F8009013
:101AF000002801D043680093012C16D0A4002B19B4
:101B0000002427000193019B9D4224D0009B2E6856
:101B1000002B04D0310018001EF04FFA0600002CF4
:101B200037D137002C680435EDE7002404A9286874
:101B3000FEF74EFD270003900398FEF7ABFD051E50
:101B40000CD1002C07D122001749019813F052F84C
:101B500000281BD04468200009B0F0BD009B2E0077
:101B6000002B04D0290018001EF027FA0600002CD4
:101B700009D03A0031000298FFF760F90B4B984208
:101B800001D025003E002C003700D5E70848FFF7BC
:101B90004DF93A0031000298FFF750F9034B984293
:101BA000C1D1BEE7561300002E1100009897020025
:101BB0000F17030037B501A9050003F0E5FB1E4B25
:101BC00004002B40062B05D0AB072AD11B4B2A68FB
:101BD0009A4226D1019920001EF078FA019001283E
:101BE00022D1207843B2002B04DB012023785B0054
:101BF00018433EBD7F23013418403F3B034208D1C8
:101C00003F22237819009143802905D020F0FCFD64
:101C1000EFE798435B10F1E780011340013418436C
:101C2000EFE7019B012BE0D0019A0549054800F040
:101C3000B7FA07F02BF9C046070080FFB4B00200E6
:101C40002817030078950200F0B5140087B00290C1
:101C5000039100222349200012F0CCFF002205004E
:101C60002149200012F0C6FF0123040004930593CC
:101C70001E4F002D07D068681D4B984203D004A961
:101C800003F082FB07001B4E002C07D06068184B46
:101C9000984203D005A903F077FB06000024029BBD
:101CA000154D9C420AD10023059A019300933100FF
:101CB000280000F063FF0E4807B0F0BD002C07D0ED
:101CC0000023049A019300933900280000F056FF86
:101CD0000399A3000022C958280012F0AFFC013478
:101CE000DDE7C0468615000096110000557103001F
:101CF000B0E00200042D0300DC97020010B50400E0
:101D000086B06A4602A8102104F02EFF01222100AD
:101D1000684612F093FC02A9024802F0A7FE06B042
:101D200010BDC046B4B0020070B50C68E30726D4FD
:101D3000A30703D1174B22689A4220D0012820D94B
:101D4000486812F04BFD0600200012F0ABFD051CA8
:101D5000300018F0CBFA011C0F481AF0F1FE011CFC
:101D6000041C281C17F096FF1AF0E6FE211C17F041
:101D7000B9FD032302249843084B0443E4182000D0
:101D800070BD200012F08EFD1AF0D6FE07F050FE56
:101D90000400F4E7ECB40200000020410000808061
:101DA00030B50B0085B01400012802D90948FFF7AF
:101DB00001FA09480121C2680192019D0022A84749
:101DC0002200039003A9012001F0ECFE039805B066
:101DD00030BDC0467C1703006499020013B50400AF
:101DE000080002F09BFE6A4601002000FEF772FB2D
:101DF000009B0248002B00D1014816BD98970200B5
:101E00009097020037B50024022800D98C684868F2
:101E10000D6802F083FE0A4B0100002C00D0094B34
:101E20006A4628009847009B002B07D001991C00A8
:101E3000002903D0180011F01DF8040020003EBD59
:101E400039050000D504000070B504000800150035
:101E500002F064FE2A0001002000FEF795FB014815
:101E600070BDC046B0E00200F8B5032605000700CB
:101E70003540022D16D10E4B0340062B12D0FF2306
:101E8000DB05C418B443201C002117F06FFA0028AA
:101E900006D080231B06E418B443064B2C43E718F6
:101EA0003800F8BD38000DF01BFB0700F8E7C0460E
:101EB000070080FF000080807FB50B00012803D160
:101EC0000021186812F0D4FB102102A81FF03AF983
:101ED0000C4902A81FF0F6FA032804D10A481EF0A4
:101EE00091F906F0D3FF039B0193002B03D1042843
:101EF00001D10648F3E702A9054802F0B7FD07B093
:101F000000BDC04655260300E49202004091020045
:101F1000B4B0020010B5FEF795FB002804D10348C9
:101F20001EF070F906F0B2FF10BDC046C494020066
:101F300010B5022803D0054905481EF082F84A680A
:101F40000B200968FEF77AFF10BDC0466217030038
:101F5000D49302007FB50D4D0400A84213D00C4E5F
:101F600001220100300012F069FB0A4930001EF026
:101F70009FFA04230293084B0394DB6902AA03210E
:101F8000064801939847280004B070BDB0E00200F5
:101F9000DC970200042D030078B00200248D0200BB
:101FA000F8B50E0000280FD10400284B1D68002151
:101FB00008001EF0E1FC00270600BD4232D10025DA
:101FC000AC423ED13000F8BD0868830714D10368E5
:101FD0001F4A93420DD11FF0CCFA0500306812F071
:101FE00015FB1C4BC26800249A42E0D134680434CB
:101FF000DDE7194A934201D012F008FB856B002DF2
:10200000ECD0164B2A689A42E8D00025E6E7EA6849
:10201000FB009958002904D0042902D0300001F0B7
:1020200061FD0137AB68BB42F1D8C8E7A268EB009D
:102030009958002904D0042902D0300001F052FD43
:1020400001356368AB42F1D8BCE7C046742E00206E
:1020500078B002006DB0000070B90200B8CE020086
:10206000F7B50D00110000220600009228001F00A5
:102070000B4B04F00DF910201FF060FF041E08D177
:10208000084B094A094C5A62002326602000A360CD
:10209000FEBD3900280005F065FCE060F4E7C046AD
:1020A000FFFF0000742E002094AB02008C2E002055
:1020B00010B5013810C905F055FCE060004810BDAE
:1020C000B0E00200F8B57F2553B204000E001700FF
:1020D0001540002B0ADB6B1E012B07D80B685868D4
:1020E0001FF0F0FE010020001EF0E2F9022D16D1D3
:1020F0000F4920001EF0DCF9F368002B02D05A686B
:10210000002A04D10B4920001EF0D2F9F8BD012AA3
:1021100007D100229968200012F090FAF6E7002D0E
:10212000EAD03A00F168200005F0C2FBEEE7C046B5
:102130006629030055260300C36803485A68002A2D
:1021400000D098687047C046B0E00200136810B530
:102150001400002B0BD0FC23FF33994206D10C4B0B
:1021600052689A4202D10023C380236010BD094BFC
:10217000994201D1C368F8E7074B02689A42F5D14A
:10218000064B9942F2D1FFF7D7FF2060EEE7C04639
:10219000B0E0020003020000C4940200E20200006A
:1021A0000EB470B5050087B010201FF0C7FE041EE6
:1021B0000BD11A4B1A4A1B4C9D6118625A622000BF
:1021C00007B070BC08BC03B01847002105608160EF
:1021D000012005F0C7FB2521E06005000B9825F0E4
:1021E00013FF061E09D10B9825F026FF32000100CF
:1021F0000B9802F071FCA860E1E702A810211EF024
:10220000A1FF0CAA0B9902A8019204F00DFD02A9EE
:102210000548E56802F02AFCEDE7C046742E002070
:1022200094AB02008C2E0020B4B0020010B5030065
:10223000820708D1064A0168914204D1054AD9684B
:102240000120914203D00449180009F03DFA10BD65
:1022500070B90200612000000491020010B5040072
:1022600012F0D4F9034BC2689A4200D024690023CB
:10227000A36010BD61200000F8B516001D00040029
:102280000F0012F0C3F9154BC2689A4200D02469BE
:10229000A068002811D10C301FF050FEA06000286B
:1022A0000AD003236360E288A1689300CB1803324D
:1022B000E2801F605E609D60F8BDE388A188023304
:1022C0008B42F0DB0331890001221FF055FE00280C
:1022D000F2D0A388A0600333A380E4E7612000006C
:1022E00070B5150004000E0012F090F9064BC2689C
:1022F0009A4200D02469A368002B02D133602B607E
:1023000070BDE2883260FAE7612000000023FA2104
:10231000094A89001360094A1370094A1360094A7F
:102320001160094A1370094A111D0832D36701224E
:10233000CB67074B1A707047A0020020DA2D0020EF
:102340009C02002008000020DB2D0020742E0020BD
:10235000DC2D002010B5084B084A1978002907D158
:10236000916C002902D0FFF7D1FF10BD30BFF4E718
:1023700000221A70F9E7C046DC2D0020742E0020E0
:10238000837F0248002B00D10148704798970200D4
:1023900090970200A02010B50F49C0054B7F5A1C32
:1023A000002B09D14C8C0D4BA3430D4C03510D4B0D
:1023B0004A775200D05A0DE010335B00CB185C888E
:1023C000A123DB00C450092AF1D1012000F0A8FFAD
:1023D0000120404210BDC0460C000020F01F00004C
:1023E0000C05000050E902000023A022E02110B5F6
:1023F00083770C4BD2050902D1500B480CF07CFBC3
:102400000A480CF079FB0A480CF076FB09480CF0FE
:1024100073FB09480CF070FB08480CF06DFB084892
:1024200010BDC0460C05000000B4020008B4020054
:1024300018B4020020B4020030B40200A8B30200B5
:10244000B0E0020073B5041E09D11A4D2B78002BA1
:102450002CD0194919481DF0FCFE2C7073BD184D85
:102460002B1DDE6F12F0D2F8164B2100984214D0CB
:10247000154B2340062B05D0A30712D1134B22681E
:102480009A420ED101A9200002F07EFF019B012B90
:102490000CD1007823F04FFA010030001DF0D9FE76
:1024A000DCE70B490B481DF0BAFEA864FFF72EFFCE
:1024B000D4E7C046DB2D002014DB02000C00002016
:1024C000742E002074DB0200070080FFB4B002000D
:1024D000DD17030078950200F7B5A123A021214A5A
:1024E000C905DB00CA500123C27F0D3293401E4A4A
:1024F0008B50C37F01920133DBB2032B2FD0C37704
:102500000200030000212233363219800233934245
:10251000FBD10424C17F154F4D000522EB5D7E19D0
:102520005343134A7678D3189B190126A640B44624
:1025300062461B7901345B00C3185E8C0635164376
:102540005E840D2CE9D101220D318A40A023A12106
:10255000DB05C9005A50828E01995A50F7BD0023FD
:10256000CDE7C046F01F00000C050000A7170300D0
:102570000C00002070B5324D8CB0AB7F002B1FD00B
:102580002800FFF7A9FF2F4A2F491368096806336F
:1025900013608B4207D300242C4B14601B78012B53
:1025A00010D0022B46D000232A8C6B77FF33FF33E9
:1025B0001A4205D0E1222649D200012000F07CFE1B
:1025C0000CB070BD234E331DDB6F002B04D03300E5
:1025D0000833DB6F002B02D1FFF798FEE3E710F022
:1025E00041FE684606F02CFC00280CD11A4B1868F6
:1025F000FEF728F8040006F041FC10F03DFE200034
:10260000FFF720FFCFE710F037FE019B1349186852
:1026100009F05AF80028F2D1019811F0F7FF104B99
:10262000984203D10F4910481EF003F8019B002483
:10263000B364E4E70D4928001DF00BFECCE7C0466B
:102640000C0000209C02002008000020DA2D002051
:1026500095230000742E0020A0020020C4940200E4
:102660005C93020017180300DC97020014DB0200E1
:10267000F0B5002485B0164D02930AAB1B782E1DD1
:10268000070008350800210001920393F467EC6706
:10269000FDF79EFF0F4B019A18600F4BF7671A600A
:1026A0006A460E4B127AE8671A700D4B1C70FDF7E4
:1026B000C9FFFFF7C7FE01220A4B1C600A4B1A70C4
:1026C000039BA34201D0FFF745FE05B0F0BDC04615
:1026D000742E0020A002002008000020DB2D002026
:1026E000DC2D00209C020020DA2D0020F0B5002413
:1026F0002C4B8DB01D1D0833DC672B4BEC6707ACF2
:1027000040C9013800930194052303F0F1FD0798B7
:10271000636805900293237B257A0393234B277CE0
:102720000340062B05D083072ED1214B02689A4225
:102730002AD106A902F028FE069B002B21D0012BEE
:102740000CD1002D0AD1002F08D1007823F0F3F826
:102750000590059930001DF07CFD12E0059811F000
:1027600043FF0590237C002B03D005980AF028FF37
:102770000590039B029A009305992B003000FFF708
:1027800077FF0C480DB0F0BD11F040FF0A4B9842A6
:10279000E8D1002D01D1002FDBD005A9012005F0E3
:1027A000E1F8DEE7742E0020F4960200070080FFB7
:1027B000B4B00200B0E0020074DB020030B5104B90
:1027C00089B003AC20C9013800930194052303F0BC
:1027D0008FFD02A9039802F0D7FD227C237B02998A
:1027E0000092039A11F0EAFE237A01000093280078
:1027F00000236268FFF73CFF024809B030BDC046C5
:102800001C970200B0E002000022074B10B51A70BE
:10281000064B02321A70064B064A1B68063B1360D1
:10282000FFF798FD10BDC046DC2D0020DA2D0020FA
:10283000080000209C02002010B5FFF7E5FF0148CA
:1028400010BDC046B0E0020010B5042901D8042A2A
:1028500002D90948FEF7EAFA092B01D90748F9E736
:102860000524614341188A18137101229A40038C90
:102870001343038410BDC046EA170300FE1703008C
:10288000F8B548680C000D6811F0A8FF0600A068B4
:1028900011F0A4FF0700E06811F0A0FF3A00030068
:1028A00031002800FFF7D0FF0048F8BDB0E002007B
:1028B00010B5042901D8042A02D90448FEF7B6FA53
:1028C0000523594340188018007910BDEA1703000A
:1028D00070B5104C050021000F480CF023F92100C1
:1028E0000E480CF01FF921000D480CF01BF92100D7
:1028F0000C480CF017F921000B480CF013F92100DB
:102900000A480CF00FF91DF02BFD01230848AB77A6
:1029100070BDC046F8D0020000B4020008B4020046
:1029200018B4020020B4020030B40200A8B30200C0
:10293000B0E00200F0B585B005001600080003AB5A
:1029400002AA01A91DF087FB0398364FB84209D0AF
:10295000032807D011F042FFB060002804D13248AC
:10296000FEF764FA0123B3600198B84229D100242C
:10297000B368A34200DC6C1E0298B84225D1B3684C
:10298000002B47DD2800002C2ADA641901D5B36832
:10299000DC17002834DA401901D501204042B36821
:1029A000002B00DA0130B368002B2DDDA04200DAE5
:1029B0002000013B706058425841C0B2346005B0FD
:1029C000F0BD11F00BFF0400D6E711F007FFB3686C
:1029D000002801DBDA0F8018002CD6DB002B03DD8A
:1029E000AC42D6D92C00D4E7002BD2D0A54200D8D7
:1029F0006C1E002804DA4019D4D501204042D1E7EA
:102A0000A842D0D92800CEE7002BD2D0A042D0DDFA
:102A1000601CCEE7002C01DA0020B6E700208342DC
:102A2000E4D1C0E7B0E0020037180300F0B50600BB
:102A300085B017001B2805D10A9A974209D00020BB
:102A400005B0F0BD19281AD01C281AD00A9A0A9786
:102A500017001A000B0011000A9A0192BA4200D91D
:102A600001971D000C0000230093009B019A9342E4
:102A700009D10A9BBB4220D0E1D30120E0E71A260E
:102A8000EAE71D26E8E70295039401CD02CC11F098
:102A900053FE002802D0009B0133E5E71B2ECED069
:102AA000039B30001A68029B1968FEF7C7F9044BB4
:102AB000C01A43425841C0B2C2E71A2EDDD1BEE768
:102AC00098970200F0B51E0085B0039018680D00BD
:102AD000170011F09BFD7368019002930024022FF0
:102AE0000ED90123B268290011F050FF0400032F12
:102AF00006D029000123F268019811F047FF050074
:102B0000A54202D80848FEF791F9039AA30002995A
:102B1000D05811F011FE002801D10134F0E7012056
:102B20006400204305B0F0BD5118030010B50B79C7
:102B30000349002B00D103491DF0BAFC10BDC0466B
:102B4000681803006D18030037B50C00110000224F
:102B50001D0000920123200003F09AFB002C05D0F9
:102B6000286811F079FF034B002800D1024B1800B0
:102B70003EBDC0469897020090970200F0B587B01E
:102B8000039205910D9A03990500521A0CA9097830
:102B900020200C00844339D030293BD00CA902916D
:102BA0000121802401911C4036D0D40FA418641058
:102BB000171B002C37DD2600019B0493B34200DD78
:102BC00004966B68049A029928689847049BF61A41
:102BD000002EF1DC039B002B06D01A0005996B68D0
:102BE00028689847039BE418002F0CDDE419019E28
:102BF000BE4200DD3E003200029928686B689847AB
:102C0000BF1B002FF3DC200007B0F0BD0749029185
:102C10001021C6E70649FAE701271F4001D1140039
:102C2000C7E71700D6E70024D4E7C046851803009D
:102C300096180300F0B593B01C0018AB20CB05909C
:102C40001B780F0016000793CB070BD48B0703D11B
:102C5000854B0A689A4205D0380011F0BFFD012764
:102C60004000074381231D4209D1079B302B06D129
:102C70001A9B1B9A934200DA1A9200231B93380086
:102C80001FF09FFD0AAA1300002806DBAB070FD533
:102C90002B231370123B04AA9B18E1B2EA0615D548
:102CA000022E0CD130221A704A1C5A7002330DE0E9
:102CB00013006A07F1D520221A701923EBE7082EBA
:102CC0003BD130221A70AA0534D4013300220AA85D
:102CD0001A701B1A2C200693AB06DB1718400EAB9C
:102CE0000B9310230C931B9B0D92012B01DD4023B2
:102CF0001D43402404ABDA752C400390029123D08D
:102D00003B00019200960DAA0CA90BA806F044FF07
:102D1000037807002D2B00D08EE004AAD3750D9BFD
:102D20001B9A013B01370D93012A00DD97E0002635
:102D3000340035E00A000E32B7E7102EC6D130223B
:102D40001A700A001732B0E70AAB019300963B00F5
:102D50000DAA0CA90BA806F01FFF1B9B070026005D
:102D6000012B1DDD0D9B1B9C9C4200DA1C001A9B55
:102D7000A3425EDD01261C1B2E4001D0260000244C
:102D800001239D432F330793002C09D0103B009360
:102D9000002301941A0035490598FFF7EFFE04005F
:102DA0006B0621D5172104ABC9180B78002B0AD06C
:102DB00000230122009301920598FFF7DFFE1A9B82
:102DC0002418013B1A93069B002B0DD0012301937D
:102DD0000023069A00930AA90598FFF7CFFE1A9BD5
:102DE000069A24189B1A1A931B9B012B01DC1A9B31
:102DF0001B931B9B0D9A0193079B39000093059829
:102E00002B00FFF7BBFE2418002E09D020230093CF
:102E1000002301961A0015490598FFF7AFFE241804
:102E20000B980EAB984201D01FF0AAF8200013B007
:102E3000F0BD00263400A3E71B9B012B00DC76E7E6
:102E40000D9B1B9C9C4200DA1C00172304AA9B18B4
:102E50001B78002B00D00134069BE41887E71B9CED
:102E60009C42F8DA1C00F6E7ECB402005526030099
:102E7000F0B50600140000278DB00D002B78002B54
:102E800015D1A94217D30B78002B00D148E14B1C78
:102E90000493202300253022082104200893049B5A
:102EA0001B78002B11D10693013B07935FE0252B84
:102EB000E7D00135E2E76B1A04931A0030687368B3
:102EC0009847049B2900FF18DDE72D2B05D12C3BEB
:102ED0001D43049B01330493E1E72B2B01D1293BD4
:102EE000F6E7202B01D10543F3E7212B01D10D4358
:102EF000EFE7302B2CD110331D430892E9E7069AF7
:102F00004A43D318303B0693049B01330493049B3C
:102F10001B781A00303A092AF1D92E2B47D1049B8D
:102F20005B782A2B18D0049B0A21013304930023D9
:102F30000793049B1B781A00303A092A17D8079A7E
:102F40004A43D318303B0793049B01330493F0E7C3
:102F500000230A210693DAE7049B023304932368D3
:102F600004340793DB43079ADB171A400792049B4C
:102F70001B786C3B5A425341049AD31804931B7834
:102F80000593002B00D1CBE0642B00D1A1E022D827
:102F9000502B29D00ED8453B022B00D8A9E00122A6
:102FA00004993068736898470137099452E0012307
:102FB0005B427AE7059B622B3CD057D8582BEED169
:102FC000231D0993069B01950393089B02934123BC
:102FD0000093313B7BE0059B712B53D00FD8672BBF
:102FE00000D886E0702BDAD1231D0993069B01954A
:102FF0000393089B029361230093513B67E0059B79
:10300000752B5AD0782BEFD0732BC8D1231D246891
:103010000993002C49D0079B013303D1200025F0F0
:103020000BF80790069B079A0193089B21000093D9
:103030002B000BE0231D09932368002B0ED0069B69
:1030400004220193089B384900932B003000FFF7BE
:1030500095FD3F180499099C01310EE7069B052256
:103060000193089B314900932B00EFE7231D09933F
:1030700023680BA90B70069B01220193089B009308
:103080002B00E3E7231D0BA9206809931EF01FFF07
:10309000079B0100013301D10B9B0793069B079A05
:1030A0000193089B00932B00D0E7069B0622019317
:1030B000089B1F4900932B00C8E7231D0993069B1B
:1030C00001950393089B029361230093573B0022D1
:1030D0000AE0231D0993069B01220393089B019597
:1030E000029361230093573B216830001DF0EFF9F4
:1030F000AFE7072307349C43230020686168083347
:10310000099318F01FFF079B011C0293069B059A69
:103110000193089B300000932B001DF045FA98E7BF
:1031200038000DB0F0BDC0467318030078180300D6
:103130007E1803008022044B52001A600123034AC8
:103140001360034A1360704700E100E00C8C0040FC
:10315000008000408022054B5200DA67044BFF3AA2
:103160005A600022034B1A607047C04604E100E039
:10317000008000400C8C004070B5002501261E4BDD
:103180001E4C1D601E4B18601E4BE650C046FFF7DC
:10319000E1FF1D4B1D4AE660E25002221C4BFF205E
:1031A000E5500433E25008339218E250C1238022E4
:1031B0009B001203E250053BFF3BE550C224402236
:1031C000144BA400195981430A4380211A510C342D
:1031D0001A5909061202120A0A431A51C02204346B
:1031E000195981430A431A51802212041A6080221D
:1031F00052041A6070BDC0466C2E00200080004052
:10320000B4020020FC0F00004C0500007017000005
:103210000405000000E100E070B51F4C1F4D636C19
:10322000002B0AD0002363641D4B1B689847A8231A
:10323000DB00EA5800018018E850A36C002B09D08D
:103240000023A364164B5B689847164B0001EA58AD
:103250008018E850E36C002B0AD00023E364104B85
:103260009B689847A923DB00EA5800018018E850C2
:10327000236D002B0ED000230B4A2365AB580B495E
:103280005B18AB500A4A1368063313608022094B5F
:1032900012045A6070BDC046FC80004000800040AF
:1032A00044000020440500004C0500007017000099
:1032B0006C2E0020FCE100E0F7B50191032823D833
:1032C000134B8000C758C223124D9B00EF500123BF
:1032D00044192364A8230F210F4EDB009C46E358BA
:1032E000AE59921BD218D3170B409A1801990B4B69
:1032F0001211C150C1239B00EF50634600200132E0
:1033000012019619E650FEBD01204042FBE7C0467F
:10331000E4970200008000404C05000044000020BB
:1033200003280BD8074B8000C158C223064A9B00D4
:10333000D150064B064AC25000207047012040423F
:10334000FBE7C046E49702000080004044000020F4
:103350004906020010B5024B1B68984710BDC046D5
:10336000B402002010B50024054AA1008B58002BA0
:1033700002D00020885098470134042CF4D110BDAD
:10338000A4020020074A89008B58002B06D18850E0
:1033900080211800044A49045160704701204042CE
:1033A000FBE7C046A4020020FCE100E070B50D0080
:1033B00011F078FA041C280011F074FA211C16F0A0
:1033C0009BFD051C1DF043F9011C281C16F062FC36
:1033D000211C16F0EDF80323020002209A43024B51
:1033E0001043C01870BDC0460000808010B51DF0AD
:1033F0002EF90323020002209A43024B1043C01807
:1034000010BDC0460000808010B5074C002802D0D7
:103410000868A04203D112F035FE200010BD11F063
:1034200009FA12F04FFEF8E7B0E0020010B5040010
:1034300011F046FB11F0D2F9002803DC0021064808
:103440001CF0FFFD12F0F8FD1FF0DEF90422010070
:10345000200011F04BFB10BD6C92020080235B0535
:103460001869034B1B7843438020C002C01A704781
:10347000DE2D002080235B051869034B1B78434336
:103480008020C002C01A7047DF2D002070B5084DA3
:10349000C4012B68002118191FF02AF92868054B70
:1034A00000197F3000781B788342F0D270BDC0468F
:1034B000B8020020DD2D002010B5C3790400002BD8
:1034C00008D0064A037981791068DB01C018013001
:1034D0001FF00EF90023237210BDC046B802002071
:1034E00010B5124B01001A684379DB01D31818009C
:1034F0007F300478FF2C08D10879C0011218527867
:10350000FF2A0FD0887990420CD08A799B1801321B
:10351000D2B258787E2A01D08A7110BD00234C7136
:103520008B71FAE701204042F7E7C046B80200205D
:1035300070B5F8248025A40223786D054D2B4CD15D
:103540002B698020E41A2B69C002E41A2969001B48
:1035500015F046FD2B4B2C4918702B69E2185218B8
:103560005D421540294B2A4A9B1A2A4A9B18802201
:10357000520511699D4234D38020C002401B15F0D2
:103580002FFD254B641B1870E411244BE4B21C7012
:10359000A12001230025224A22491360C0004D606A
:1035A0004B68002BFCD01358DBB2A342F7D21E4964
:1035B00001330B7001235360FFF750FF03780500C0
:1035C0001A4CFD2B0FD180235B051869184BC009DD
:1035D000C018C0012818206070BD80242B69E40247
:1035E000AFE76D18C5E7FFF745FF0378803DFD2B7A
:1035F00001D12560F0E7FFF73DFFFD211FF078F8CE
:10360000F7E7C046DF2D0020FF87FFFF780200208C
:1036100000000020CC7A0300DE2D0020DD2D0020EC
:1036200000D00040FCD00040E02D0020B802002077
:10363000FFFFFF01F7B5254B254F1A78254B1400E6
:103640001B7839680133E001405CFF2829D0013440
:10365000E4B29C4200D101249442F4D1802300269C
:103660005B051B69DB090193E30100933B68E20101
:103670009D182B7828005A425341F6181FF04EF837
:10368000002810D0002304E0DA01AA5C002A0AD145
:103690000133019A9342F7D13868009BC0181FF09C
:1036A00033F82000FEBD0B4B01341B78E4B201332C
:1036B0009C4200D10124054B1B78A342D4D1072E94
:1036C00002D91DF035F8B6E7FF24EAE7E02D002027
:1036D000B8020020DD2D0020F7B507000D00012401
:1036E0000E4B1B7801930E4B1E68019BA34202D226
:1036F000FF242000FEBDE10171180B78FE2B09D1DB
:103700008B78AB4206D103312A00380024F043FC09
:103710000028EED00134E4B2E7E7C046DD2D0020FA
:10372000B802002010B5054A03791068DB01C01803
:1037300081780022033001F0CFF910BDB8020020DB
:10374000F0B585B002900D0016000393782949D892
:10375000FFF7C2FF0400002E3CD0FF2801D0FFF786
:1037600095FEFFF767FF0400FF2803D11E491F489D
:103770001CF067FC1E4FC0013B680190FE21181829
:103780001EF0B6FF3B68019AE9B2981802301EF0AD
:10379000AFFF3868019B2A00C018033002990BF074
:1037A00039FE0C201EF0BDFB039A0300002A17D03F
:1037B000104A1A600E4A1C7112685C71E4011419F7
:1037C000A278DE7102329A7101221A726A46127B65
:1037D0005A7202E03300FF28E3D1180005B0F0BDB3
:1037E000054AE6E70023F8E7A71803001094020053
:1037F000B80200205C8602000887020007B501A914
:1038000001F0C2FD0199FFF767FFFF2803D10449CA
:1038100004481CF016FCFFF739FE03480EBDC046F5
:1038200025F1020010940200B0E00200F7B5019209
:10383000027A04000091002A02D12448FDF7F6FA2A
:10384000C579002D06D1224A17680279D201D25DCE
:10385000002A05D1092201251A606D422800FEBD0B
:1038600061797E22C901791808007F30A379007838
:10387000D21AFF2809D12079C00138184078FF28D2
:1038800019D0C01A824200D902000198461B964204
:1038900000D91600002EE1D0009A01335019C91842
:1038A000320024F087FBA3799B19DBB27E2B04D076
:1038B000A371AD19D4E70022E7E70023A371637970
:1038C000DB01FB187F331B786371F2E7BD1803003F
:1038D000B8020020F0B585B00393037A040002918A
:1038E0000192002B02D13048FDF7A0FAC379002BDA
:1038F00008D02E4A03791268DB019B5C019A009282
:10390000002B25D10923039A13600A3B01930198E8
:1039100005B0F0BD7E22A379D71A009A974200D94C
:1039200017006079214E0133C001C01833683A0096
:10393000181802990BF06EFDA379DB19DBB27E2B10
:103940000AD0A371029BDB190293009BDB1B00933F
:10395000009B002BDED1DAE70023A371FFF76AFE9C
:103960000500FF2809D12079FFF790FD002323727D
:103970001C23039A13601D3BC8E760793368C001BC
:10398000181829007F301EF0B3FE3368ED01581976
:1039900061791EF0ADFE62793368D2019B187F33E6
:1039A0001B786371CEE7C046BD180300B802002043
:1039B000002170B508001CF0DFFF012405000C4B4E
:1039C0001B78A34201D2280070BD0A4AE3011068A7
:1039D000C0180378FE2B08D181780022033001F053
:1039E0007BF80100280000F07DF80134E4B2E6E73E
:1039F000DD2D0020B802002073B501A901F0C4FC40
:103A00000199FFF769FEFF2803D10E490E481CF00B
:103A100018FB00257E260D4B1C68C301E31859785E
:103A20009B780233DBB2C201A2187F321078FF28E4
:103A300004D1C81A40191EF0E7FE76BDF31AED183E
:103A40000023F0E725F1020010940200B8020020E4
:103A50001FB5034A034B1EF035FB05B000BDC04641
:103A6000E1340000B9340000002803D0012807D059
:103A7000002004E08B680448002B00D10348704705
:103A80008B685B001843FAE7989702009097020052
:103A9000044B88600B60044B08004B600023CB6034
:103AA0007047C04688D302000308020000238168E3
:103AB000F0B5CA0F094C521852100E199A4201DC87
:103AC0000748F0BDC568F11A9C0089002C196D5893
:103AD00027682560C46801336750EFE7FFFFFF3FA9
:103AE000B0E0020070B583680D00416804008B42AD
:103AF00012D3C900C0681EF032FA63680A495A003E
:103B0000A3686260D21A013352189B00E0609200F1
:103B1000C018002124F06AFAA368E268591C9B00CF
:103B2000A16002489D5070BDFFFFFF3FB0E0020062
:103B3000F8B5070016004C10836812D5E41810D5AC
:103B400000240D4D38002900FFF7CCFFBB68591E3B
:103B50009B00FA68181F8C4207DBA4002800A650BF
:103B6000F8BD9C42EDD91C00EBE7D318083B1B685D
:103B7000013913500300ECE7B0E0020070B50025F6
:103B8000040085601021C0681EF0E9F904232900B3
:103B9000E0606360102224F029FA014870BDC0463D
:103BA000B0E0020030B50C0085B0104B02AD04311E
:103BB000009301380223019502F09AFB23680C4C14
:103BC000996801290FD9D8680A4B029AC918890047
:103BD0004118A24200D100222D79074B002D00D1BF
:103BE000064B1CF01CFE200005B030BD889802007A
:103BF000B0E00200FFFFFF3F90970200989702009D
:103C000070B50C680B00A1680200002903D11949A6
:103C100019481CF016FA2068012A27D05A68002398
:103C200010F0B4FEE168A26886008B19013A1D68A5
:103C30000436A260121A92008919180024F0C3F900
:103C40000021A368E0689A001150616804290BD92B
:103C50005B00994208D949088900E0681EF07FF9A5
:103C60006368E0605B086360280070BD0122524217
:103C7000D5E7C046DA1803006C92020007B5009041
:103C80000191022069461CF032FE69460190022033
:103C9000FFF7B6FF00480EBDB0E0020070B50E00A1
:103CA0000D49050000241CF003FCB368A34204D8AE
:103CB00028000A491CF0FCFB70BD002C03D0084909
:103CC00028001CF0F5FBF168A300012259582800D8
:103CD00010F0B4FC0134E8E7CE690300E47403009B
:103CE00095F0020070B5032604000D000E4029D1A6
:103CF000174B0A689A4225D183688A6899184368E5
:103D0000994210D904318900C0681EF028F9AA68C8
:103D1000A368E0609B181A1D9B006260C018102207
:103D2000310024F063F9A368E9689800E368181883
:103D3000AB689A0024F03EF9AB68A268D318A36080
:103D4000044870BD290020001CF0DAFDF8E7C046E9
:103D500064990200B0E002000B4B70B505000360EF
:103D60000C000800042900D204206860AC608000C8
:103D70001EF0D7F86A68E860121BA40092000019D0
:103D8000002124F033F970BD649902007FB50D0065
:103D9000160012283ED005D8052819D007283FD094
:103DA000002434E00300193B042BF9D893070DD10C
:103DB000284B12689A4209D1B36800938A68F36865
:103DC000C968FEF733FE244C002820D1234C1EE0A6
:103DD000032300241340A34219D11C001D4A336859
:103DE000934214D18B68B26898181CF0A2FD0400AD
:103DF000AB68E9689A00C06824F0DCF8A868E3685A
:103E000080001818B368F1689A0024F0D3F82000F5
:103E100004B070BD11002800FFF764FF2C00F6E726
:103E200003A9100010F018FD0024A042EFD0039B5E
:103E3000A34200DA0394AB68039858431CF079FD61
:103E4000C36804000093AA68039B0421E8681CF07F
:103E500094FADCE7649902009897020090970200B8
:103E6000F0B5032704008BB00E0010000F40002AAD
:103E700033D1002F2AD1654B0A689A4226D104AA71
:103E8000A068FEF757FD002802D16148FDF7C0F990
:103E90000599049BA268E0685D1A521A9B0089008C
:103EA00041189200C01824F08EF8A368AA00E81800
:103EB000E368800018185242390024F097F8A3688C
:103EC0005D19A560534D28000BB0F0BD07A9022075
:103ED00007940896FFF794FEF4E7042A2CD1A06813
:103EE000002F1FD1494B0A689A421BD107AAFEF73F
:103EF00021FD002806D107AAE168A0681CF050FA4D
:103F00000500E0E7079B0898C01A1CF012FD8368C3
:103F1000E1689A00079B05009B00C918C06824F05F
:103F200049F8D0E7002301003200206810F02EFD90
:103F3000E3688000C558C6E7364D002F60D1334B8B
:103F40000A689A425CD103AA02A910F0E9FC07AA08
:103F50003100A068FEF7EEFC002896D0079B029A7D
:103F600008999E180191761AE068002E27DDA36853
:103F7000F1186368994206D989001DF0F0FFA36823
:103F8000E0609B196360029A079BA1689B18F21A74
:103F900052180899E0689B00890041189200C018E7
:103FA00024F011F8029B03999A00079B9800E3689C
:103FB000181824F008F8A3689E19A66083E79B00F0
:103FC0000399C018920023F0F5FF0899A268E368EE
:103FD000521A8900019359180798029B9200C01841
:103FE000019B8000181823F0EEFFA368B200F018C0
:103FF000E368800052421818390023F0F7FFDAE72F
:104000000200310020001CF0D5FC5CE704860200B1
:1040100055260300B0E00200F0B508C98DB0059345
:10402000244B06AC013800930194062302F060F99A
:10403000E068214E214FB04202D005F0FBF90700A5
:104040001F4B20690393B04202D005F0F3F90390AF
:104050001C4B60690493B04202D005F0EBF9049068
:10406000194D380029000AF05DFD290003980AF077
:1040700059FD290004980AF055FD01200523049AF2
:104080000399059D5279497904354042FB5652B255
:10409000009049B2280014F0C3FC0023A2686168B4
:1040A000280014F043FC2800069914F077FC300037
:1040B0000DB0F0BD54A30200B0E00200C0B3020096
:1040C000D0B30200C8B3020028D10200F0B50E68D8
:1040D00087B0736807000C00002B02D11248FCF770
:1040E000A5FE486810F07AFB010002A81DF03BF81D
:1040F0000025032F03D1A06810F070FB05000024F9
:10410000039B0193A34208D9301D290014F070FDD0
:10411000049B185501930134F2E702A9034800F00B
:10412000A5FC07B0F0BDC046EE1803006CA6020067
:1041300070B505006B6886B00800002B02D10B48F3
:10414000FCF774FE012203A910F002FD039E340067
:10415000049AA31B01929A4205D92178281D14F0D4
:1041600047FD0134F4E7024806B070BDEE180300C5
:10417000B0E00200F0B505006B6889B008001400DB
:10418000002B02D10E48FCF751FE012202A910F0CB
:10419000DFFC20000024022205A9029F10F0D8FCB9
:1041A000059E039B0193A34206D9395D281D14F097
:1041B0001FFD30550134F4E7024809B0F0BDC04698
:1041C000EE180300B0E002000023820708D1006867
:1041D000044A0133904203D0034BC01A4342434187
:1041E00018007047E8A30200ACA30200044B8860EB
:1041F0000B60044B08004B600023CB607047C04647
:1042000088D30200930A020030B585B0050008008B
:104210006946FCF7DDF904002000FCF73BFA011EBB
:1042200002D1064805B030BD2B1D0022180021F038
:104230004FFC0028F0D00248F4E7C04698970200EF
:104240009097020070B5050010201DF06AFE040072
:10425000074B696808C021F031FCAB68E968A360CE
:104260006B68E0689A0023F0A5FE200070BDC04690
:10427000E8A30200F7B504000D0000268B0704D167
:104280000B68214E9E1B73425E41AB68002B0AD126
:10429000002E03D01D4920001CF00AF91C49200003
:1042A0001CF006F9F7BD002E03D01A4920001CF0BF
:1042B000FFF8194920001CF0FBF8002701236A6869
:1042C000BA4207D8154920001CF0F2F8002EE9D0B8
:1042D0001349E4E7BA000192EA68B9005258002A8B
:1042E0000FD0042A0DD0002B03D10E4920001CF062
:1042F000DFF8EB68B90059580122200010F09EF950
:1043000000230137DBE7C046ACA302003A190300E3
:1043100041190300471903005219030025760300D1
:104320008772030095F0020010B5830707D1044B94
:1043300002689A4203D1034903481BF082FE10BD74
:10434000ACA3020002190300C890020070B50D0072
:104350000400FFF7E9FF2900201D012221F0B8FB2E
:10436000004870BDB0E0020070B50D000400FFF71A
:10437000DBFF2900201D022221F0AAFB004870BDAE
:10438000B0E0020070B5060008680D000124FFF7D8
:10439000CBFFB44201D3044870BDA300E95828689C
:1043A0001CF015FB0134F4E7B0E0020070B50D001D
:1043B0000400FFF7B9FF28000021FCF709F9050008
:1043C0002800FCF767F9011E01D1044870BD231DC8
:1043D0000322180021F07CFBF2E7C046B0E00200A7
:1043E00010B50400FFF7A0FF201D21F0FFFB0148DE
:1043F00010BDC046B0E0020010B501221CF018FB51
:10440000004810BDB0E0020070B504000D00FFF7D9
:104410008BFF201D0222290021F05AFB002804D125
:1044200003481BF0EFFE04F031FD024870BDC046AA
:10443000A8920200B0E0020010B50400FFF774FF7C
:10444000201D21F0B4FB002803D1024902481BF0D3
:10445000F8FD10BD24190300A8920200F8B50D0064
:1044600001280BD0002803D002280BD0002004E044
:104470008B681448002B00D11348F8BD8B685B0093
:104480001843FAE7032400200C408442F5D10F4B77
:104490000E6820009E42F0D14F68A74203D1012050
:1044A00076003043E9E7EA68A3009958002906D06E
:1044B000042904D00220FBF723FF401036180134F2
:1044C000EBE7C0469897020090970200ACA3020069
:1044D000F8B5040010200D001DF023FD0600094B67
:1044E000210008C60700300021F0E8FAA4002C19CA
:1044F000A54201D13800F8BD012202CD300021F0E3
:10450000E7FAF5E7E8A30200F7B504000E00171E6E
:104510002CD0FFF709FF194DB4422DD0002108001F
:10452000FFF7D6FF002105003000FCF751F801909D
:104530000198FCF7AFF8061E0CD1002F1CD0E068E4
:104540001DF01EFD6B686360AB68A360EB680B4DEC
:10455000E36011E0201D0022310021F0B9FA0028AB
:10456000E6D031002800FFF7F1FEE1E78842D5D11F
:1045700020001CF03FFA05002800FEBDB0E002005C
:10458000F0B589B004000390029101920027FFF773
:104590001BFEB84207D13A0003AB012122481CF0B0
:1045A0009DFA04000137029D00262800FFF70CFE4B
:1045B000B04207D1320002AB01211B481CF08EFA39
:1045C00005000136019B002B05D00023AA6801934A
:1045D000A36893420DD0154B06940493144B059396
:1045E0000023079304A81CF054FA011E12D10123E2
:1045F0000193002F02D02000FFF7F2FE002E02D020
:104600002800FFF7EDFE019B0A48002B00D10A4865
:1046100009B0F0BD2B1D0022180021F059FA002826
:10462000E0D10190E5E7C046E8A3020088D302008C
:10463000930A0200989702009097020073B50C004D
:1046400015000091019200268B0704D10B68394EAA
:104650009E1B73425E4132001F2868D814F0ACFCE8
:104660002810176767671C676767676767212D34BE
:104670006767673B676767676740464A5358675D88
:10468000290020001CF0C7F90400200076BD290095
:1046900020001CF018FAF7E7694602201CF0F4F934
:1046A000F2E7002E04D069460220FFF76BFEECE72C
:1046B000290020001CF0A5F9E6E729002000002EC3
:1046C000E0D0FFF773FEE0E729002000FFF71CFFB2
:1046D000002EDAD1D8E7694602201CF0A9F9D3E709
:1046E000012229002000FFF74BFFCDE70122210026
:1046F0002800F8E72800FFF767FD002815D0A36819
:10470000AA68934211D1290020001CF018FABBE7D7
:10471000290020001CF00BFAB6E7201D002229001A
:1047200021F0D6F9044C0028AFD1044CADE70024A9
:10473000ABE7C046E8A302009897020090970200FA
:1047400010B500F0EBF90023064A99008958814220
:1047500005D001330C2BF8D10348FCF767FB180098
:1047600010BDC04658A5020054190300094A70B58F
:104770001378002B0CD1084D2C78E4B2002C07D113
:104780000068013313702B7003685B6898472C70C6
:1047900070BDC046E12D0020E22D002010B50400C0
:1047A0000430FFF7E3FF606821F08AFD034B8000CF
:1047B000C3580620DB00184310BDC04658A50200B0
:1047C00070B504000800FFF7BBFF0500201DFFF7D0
:1047D000CDFF606821F074FD024BA84200D0024B6F
:1047E000180070BD989702009097020070B5040001
:1047F0000800FFF7A5FF0500201DFFF7B7FF012305
:10480000AB40064A064811880B4200D10548118882
:10481000994311800022044B1A7070BDD02D0020E6
:104820009897020090970200EB2D0020F8B5043015
:10483000FFF79CFF124C13482378002B1FD02078E1
:104840000021C0B203F08EF8012600220E4F23781B
:10485000934212D915005308FB5C3540AD002B4143
:104860000F252B40094D9B005B5906259100DB006D
:1048700041182B438B600132E9E700232370F8BD18
:10488000EB2D002094AB0200E32D002058A5020080
:1048900070B543885A1E0A2A1FD801252A009A405B
:1048A0000F490888024392B20E480A8002780F2A04
:1048B00013D802780C4CEA40A25C0678D2B20F21E1
:1048C0002E420BD00A401B0113430278DBB2520880
:1048D000A35403780133DBB2037070BD8A43F3E75E
:1048E000D02D0020EB2D0020E32D0020032230B539
:1048F00002400121002A04D1084C05680B00A542A2
:1049000009D00B00034006D1002A04D103680448F3
:104910001B1A58424341180030BDC046A097020000
:10492000ECB4020010B50400FFF7E0FF01220028FC
:104930000AD1032302002340022B05D1034804407F
:10494000063C2200541EA241100010BD070080FF4B
:10495000044B88600B60044B08004B600023CB6065
:104960007047C04688D30200910E020010B50FF0C8
:104970004DFE084B42680848D31859424B41AB21C1
:104980005B428B4305495B180549FDF709FC04F0C0
:104990007DFAC04641FDFFFF78950200BF0200008E
:1049A00064190300F7B504000E00019301208B1871
:1049B0000A0000210093009B934212D8272500296A
:1049C00000D0053D224F2A00390020001BF031FEA7
:1049D000009B9E4214D32A00390020001BF029FEC0
:1049E000F7BD1378272B08D0223B5D426B41DBB229
:1049F0000132002BDFD02725E4E700230100F7E791
:104A00003278AA4205D12A00124920001BF011FE7B
:104A10001AE011495C2A14D01F2A09D97F2A15D01F
:104A2000019B002B02D053B2002B07DB3900ECE7CF
:104A30000A490A2A05D00A490D2A02D0092A05D1B5
:104A4000084920001BF034FD0136C1E70649DCE7C8
:104A50009E1D03009D1D0300A11D0300A41D030056
:104A6000A71D0300AA1D0300AD1D0300194B70B55F
:104A700006000C0098420FD14968A06807F0B0FE0C
:104A8000051E09D020001CF07FFB0023ED002360F1
:104A900006331D43280070BD10201DF042FA6168E6
:104AA000050081600660A06807F07CFE63686860AE
:104AB000591C2368994208D1A368EB600023EA6877
:104AC000A9685354A3602360E4E7A0681DF047FA87
:104AD000E860F3E7B4B0020070B504000D00002AEE
:104AE00005D007F0AFFEC3000620184370BD07F0E5
:104AF00077FE0028F7D12A00210002481CF0A0F818
:104B0000F4E7C046B4B0020010B50A000100024844
:104B10001CF096F810BDC0466CA60200094B10B5FB
:104B20000340062B01D1C00810BD830708D1064BF6
:104B300002689A4204D18168C06807F083FEF3E7F7
:104B4000FFF714FF070080FFB4B00200064B10B55A
:104B50000340062B03D1C0081DF0B9F910BD8368CE
:104B6000C0680B60FAE7C046070080FFF0B50F0091
:104B7000002589B0110006001C00380000950323B1
:104B80002A0001F085FB0E20AF420FD0012F0FD17C
:104B900002AA102104A801F0E7FF216802A82A0058
:104BA0000FF04CFD04A93000FFF760FF09B0F0BD25
:104BB0002068830722D1164B02689A421ED104A9AD
:104BC000FFF7C4FF134B050020680340062B13D1E9
:104BD000C0081DF06DF90400002C04D104992800D0
:104BE00007F0E0FD04001020049F1DF09AF9066014
:104BF0008760C5604460D9E74468EDE704A90122F5
:104C00000FF0A6FF002205990498FFF765FFCDE796
:104C10006CA60200070080FFF0B58DB00400039180
:104C20000FF0F4FC04A906002000FFF78FFF039BA0
:104C300001902F489A0705D11B6883420AD02D4A5C
:104C4000934207D0C36800220293012103AB029C68
:104C5000A0470390002406AA05A903980FF060FE60
:104C60002500059BA3420ED82900002508A81CF0AA
:104C70007AFA0A9C059BAB4221D808A93000FFF7BD
:104C8000F5FE0DB0F0BD069BA700D8590FF0BEFC95
:104C9000B04202D01848FCF78DFA002C01D0049BDA
:104CA000ED18069BD859154B0340062B05D1C008BB
:104CB0001DF003F92D180134D3E78068FAE7002DC1
:104CC00006D02000049A019923F074F9049BE4189B
:104CD000069AAB00985807A9FFF738FF079A01001A
:104CE000200023F067F9079B0135E418C2E7C046AE
:104CF000649902009CAB0200DA1D0300070080FFEC
:104D0000F0B58BB0049008680D00069207930FF081
:104D10007DFC040068680FF079FC0600A04202D018
:104D20006868FFF723FE08A92868FFF70FFF040053
:104D300009A96868FFF70AFF089A0590A31803936A
:104D4000049B2700022B19D9AB681D498B4206D062
:104D5000012130000091210004F064F90700049B58
:104D6000032B0BD0EB68164A934207D00122210097
:104D700000923000089A04F055F90390039B059ABD
:104D8000D91B069B38000093099B1BF03AFF0028B3
:104D900006D1079B0138002B0CD00A48FCF746F8D7
:104DA000094B9E4208D1010020001BF080F944000D
:104DB000012020430BB0F0BD041B6400F8E7C0469F
:104DC000B0E00200C61D0300B4B00200F0B5070059
:104DD00087B008680D000FF019FC04A906002868C8
:104DE000FFF7B4FE05A904006868FFF7AFFE039063
:104DF0002000022F07D901230093AB68049A2100F9
:104E0000300004F00FF9059A041B049BA418064D0A
:104E10009C4205D8039923F0BEF8002800D1034D29
:104E2000280007B0F0BDC046909702009897020096
:104E300073B50D00060069462868FFF787FE01A9D3
:104E400004006868FFF782FE0100022E02D90848BC
:104E5000FCF7DEF9019A0098064D824206D8801AC6
:104E6000201823F098F8002800D1034D280076BDC3
:104E7000B41D03009097020098970200F0B58FB020
:104E8000079010680C0016000FF0C0FB0690012C74
:104E900031D070680FF0BAFB069B984202D0706860
:104EA000FFF764FD0DA97068FFF750FE0D9B089099
:104EB00009930DA93068FFF749FE0D9B0B900493F1
:104EC000079B012B1CD1049B5D1E01235B420A93AF
:104ED00000242700049B03940593059B002B13D10A
:104EE000039B002B23D1214B069A0E209A4200D01F
:104EF0001F480FB0F0BD072309931E4B0893D8E756
:104F0000012300250A93E3E70B9B09995A19012312
:104F1000089800931BF075FE002816D1039B002B08
:104F200019D1079B002B09D12F00049B5C1E049B09
:104F30000134E21B934212D13068DAE7079B2C0060
:104F4000012B0AD001232F0003930A9BED18059B28
:104F5000013B0593C1E72C00F7E7039FE7E70B9BB5
:104F60000698D9191BF06CFEC3E7C046B4B0020026
:104F70005CA60200331E0300F0B589B004900868F7
:104F80000D000FF043FB040068680FF03FFB0700C3
:104F9000A04202D06868FFF7E9FC06A92868FFF77D
:104FA000D5FD060007A96868FFF7D0FD069A0590B1
:104FB000B3180393049B3400022B19D9AB681E4924
:104FC0008B4206D0012138000091310004F02AF80C
:104FD0000400049B032B0BD0EB68174A934207D0C5
:104FE0000122310000923800069A04F01BF8039069
:104FF0000025079BAB4212D1039B2000191B1BF01D
:1050000065F8013045000120284309B0F0BD05993D
:10501000200022F0C0FF002808D101353400079A93
:10502000039BA6189E42F2D96D00ECE720001BF00E
:1050300035F80600F2E7C046B0E0020010B5010006
:1050400001481BF0EFFE10BDED00020010B501009D
:1050500001481BF0E7FE10BDFF000200F7B5060097
:10506000080001A9FFF772FD019B0500002B01D18B
:105070001348FEBD134B04009E4207D10027019A3E
:10508000631B9A4211D8002F07D1F1E70E4B9E42C5
:10509000F4D0019A631B9A4201D80C48E9E72078C2
:1050A000B04701340028F4D1E2E72078FCF7FEF89D
:1050B000002803D02078B047071ED9D00134DEE79E
:1050C00090970200151300002D130000989702001E
:1050D00010B501000148FFF7C1FF10BD9512000097
:1050E00010B501000148FFF7B9FF10BDAD12000077
:1050F00010B501000148FFF7B1FF10BDC512000057
:1051000010B501000148FFF7A9FF10BD15130000FD
:1051100010B501000148FFF7A1FF10BD2D130000DD
:10512000F0B585B006000C0017000FF06FFA694665
:1051300005003000FFF70AFD0600042F23D1009878
:10514000A30715D1114B22689A4211D101AA21005F
:10515000FDF7F0FB002802D10D48FCF759F8019942
:10516000029A2800521A71181BF06AFD05B0F0BDB2
:1051700000230100220028000FF008FC335C01200E
:105180005B001843F2E70020F0E7C0460486020007
:10519000C219030070B51D008EB0002900D174E063
:1051A00018683B4C03002340062B05D0830726D10B
:1051B000384B02689A4222D10239012962D80AA9E1
:1051C000FFF7C4FC060028680440062C15D1C0086F
:1051D0001CF06EFE0400002C04D10A99300007F088
:1051E000E1FA040010200A9D1CF09BFE2A4B85600A
:1051F0000360C66044600EB070BD4468EBE70129EF
:1052000040D80122104210D0441021000AA81BF0FF
:10521000AAFF0C9B002122001800019322F0E6FE59
:105220000AA91D48FFF722FCE5E703A920F0A7FB28
:10523000002805D0049A039917481BF001FDDAE70E
:1052400028680FF0E5FB1021002800D0411006A8C7
:105250001BF078FF0AA92868FBF7BAF904002000C0
:10526000FBF718FA002801D106A9DAE70FF0B6FA21
:10527000FF2802D90948FBF7D9FDC1B206A81BF0E7
:10528000C1FFECE70648FBF795FF0648B3E7C046C9
:10529000070080FFB4B002006CA602008F19030063
:1052A000A81903005CA6020073B50400080001A958
:1052B0001600FFF74BFC0500042E06D10300019AEF
:1052C000074920001BF0B5F973BD064920001BF00B
:1052D000EFF80123019A29002000FFF763FBF3E7B1
:1052E0001F1E03006E3703000A001B4B73B51A40E4
:1052F00005000C000340062B0CD1062A04D1441AE9
:1053000060426041C0B212E0C0081CF0D1FD06004E
:10531000606805E04668062AFAD1C8081CF0C8FD96
:10532000002E05D0002803D0B04201D0002076BD69
:1053300069462800FFF70AFC01A905002000FFF7D5
:1053400005FC009A019B01009A42EFD1280022F04F
:1053500022FE44426041D5E7070080FF084B07B5B5
:105360000340062B08D0830704D10268054B9269DD
:105370009A4201D0FFF7FAFA01A9FFF7E7FB0EBD49
:10538000070080FF255900000A4B13B503400C00AD
:10539000062B08D0830704D10268074B92699A4212
:1053A00001D0FFF7E3FA01A9FFF7D0FB019B2360CF
:1053B00016BDC046070080FF25590000F0B59BB020
:1053C0000B900591089210210EAA12A8099301F0E2
:1053D000CBFB059B089A934208D30B9A12AB13CBD5
:1053E00013C21B6813600B981BB0F0BD059B1978A6
:1053F0005D1C7D290ED1089BAB4208D9059B5978CD
:105400007D2904D112A81BF0FDFE059507E0BC48DC
:10541000FBF70CFD7B2906D012A81BF0F3FE059BC1
:1054200001330593D5E7089BAB4216D9059B597804
:105430007B29E7D02B007D2903D0212901D03A29EF
:105440000DD100252E001A78212A11D000220692B3
:105450001AE0089A01339A4201D1AA48D8E71A788B
:105460007D2A03D0212A01D03A2AF2D11E00EAE790
:1054700008995A1C91421CD95A780692723A012A0C
:1054800017D802339942E8D900211A7805913A2AAF
:105490001FD15A1C5B7805927D2B1DD1089B059A64
:1054A0009342DAD90027059B1B787D2B17D09648AD
:1054B000AEE79648ACE719787B2905D10132013374
:1054C00008998B42F7D3C8E77D29F8D1013A002A21
:1054D000F5D1059F0593E6E7059B0122F0E7002D36
:1054E00048D0002328781693FBF7ECFE00283DD027
:1054F000099B1B680793002B01DD854888E716AAE6
:10550000310028001BF065FB209A169B013A04002D
:105510009A4203D87F4980481AF093FD219A0133BB
:105520009B009D580122099B52421A60B44231D21D
:105530007A48FBF76DFE0134B44204D223782E2B57
:1055400001D05B2BF7D1611B01222800FFF7C4FAC1
:1055500000220500010022980FF04CFB002807D123
:1055600029006F481AF054FE03F090FC2C00E3E78A
:105570004568DBE7099B1B68002B01DA694847E7B0
:10558000209A013A9342C5D2013321999A00555885
:10559000099A1360002F00D0A6E1069B3C00002B67
:1055A00004D0069C733C631E9C41E4B210AA1021F7
:1055B00016A801F0D9FA2900220010A80FF03EF831
:1055C00016A95948FFF752FA01235B4205000D93D3
:1055D0001093002F00D18FE00AF09AFB229B059ACE
:1055E0000293219B39000193209B16A80093099BED
:1055F000FFF7E4FE16A81BF0F3FD0026179B04003E
:10560000C3180A9303780693B34208D0474F190092
:10561000380022F0F9FCB04200D16EE10134237869
:105620002B2B4ED000272D2B02D0202B01D104375D
:1056300001342378232B02D1133B1F4301342378F9
:10564000302B07D1069B002B01D13D330693002E52
:1056500000D130360DAA0A9920001BF0BAFA03785F
:1056600007902C2B04D10C3B1F43030001330793FD
:10567000079B1B782E2B06D1079810AA01300A9998
:105680001BF0A7FA0790079B1C78002C1BD0210069
:10569000274822F0B9FC002803D0079B5B78002B39
:1056A00011D02448B4E63100380022F0ADFC0028C7
:1056B00004D033000234069E0693B0E7069006003D
:1056C000ADE70227B4E716A81BF05EFD069B002B92
:1056D00008D12800FFF726F93C230693002801D0C3
:1056E00002330693002E00D1203606231F4229D014
:1056F000732C23D110488BE63C003E00E9E7C046FE
:10570000ED1A03002E1B0300461B0300151B0300AC
:105710006A1B0300B41B03006C920200CD1B030044
:10572000A8920200EA1B0300B4B00200341C03007C
:10573000391C0300491C0300621C0300632C01D1C7
:10574000714865E6069B3D2B1FD05E2B1FD03C2B7E
:1057500001D13B3B1F432800FFF7C8F800282DD09C
:10576000632C50D026D8472C13D8452C26D2002C99
:1057700040D0252C22D0280020F0EAF82200030097
:1057800062496348FCF70CFDEEE64023E2E7802324
:10579000E0E7582C53D0622CEDD1002303930D9BEE
:1057A0000222029361230196009729000EA8FDF7BB
:1057B00041FA34E6672C17D8652C1BD32800FFF775
:1057C000B1F800286CD0002C56D06E2C54D0472C49
:1057D0003FD8452C41D2252C50D0280020F0B8F8D5
:1057E000220003004B49CCE76F2C1AD0782C26D02E
:1057F0006E2CC0D1002303930D9B0196029300975A
:1058000061230A22D1E728000EF0E8FF0D9B16A9BC
:105810000870012201933B0000960EA8FDF7AEF937
:10582000FDE5FB0602D580239B001F430023039365
:105830000D9B01960293009761230822B5E7002291
:10584000230003920D9A173B0292019600971022B3
:10585000ABE72300653B022BBFD828000FF022F8EE
:10586000109B220002930D9B011C01933B000096AC
:105870000EA81AF099FED2E56724EEE728008024EE
:105880000FF010F8244914F005FA109B64000293FD
:105890000D9B3C430193011C009623006622E7E721
:1058A000069B3D2B01D11D48B2E5002C01D0732C85
:1058B00013D116A92800FFF767FD109B0100169A67
:1058C000002B00DA1092109B9A4200D916930D9B80
:1058D00000960193169A3B009FE7280020F038F8C5
:1058E000220003000E494CE7069B002B00D058E62F
:1058F00001235B420D9310936EE66678002E00D074
:10590000D1E606968BE6C0468E1C0300C11C030040
:10591000F0950200F21C03000000C842261D03009F
:105920005B1D0300F0B5A1B005000C000D920A2824
:1059300000D0E4E10DAB0F930123073D10930592D6
:1059400015403CD11368BF4A934206D10FAA10A953
:1059500005981BF0AEFD059502E0BB4A9342FAD1D3
:10596000109B11A907930F9B20000893FFF7EEF8F7
:10597000002309900A93A30705D1B44A23689B1A10
:105980005A425A410A9214AA102118A801F0ECF8C0
:10599000119A00279446099B099C63440493049B35
:1059A000A3420FD8079BAA48BB4229D10A9BA9480A
:1059B000002B00D0A54818A9FFF758F8BAE100233A
:1059C0000593CDE72178252904D018A81BF01AFCEF
:1059D0000134E4E7049B661CB34202D89E48FBF7FF
:1059E00025FA6178252904D118A81BF00BFC340096
:1059F000EEE70025282915D1059BAB4202D1974837
:105A0000FBF7D8FBA01C06003378292B23D1311AD1
:105A10000122FFF761F80100059808F0BBFB0127A0
:105A200005000136002334004022002630210420E6
:105A30000B9320330693049BA34213D800231293A5
:105A4000049BA34231D923782A2B70D1079BBB42F8
:105A500021D88348D4E7049BB34201D88148BEE7EC
:105A60000136D1E723782D2B03D12C3B1E43013483
:105A7000E1E72B2B01D1293BF8E7202B01D106438D
:105A8000F5E7232B04D0302BD8D116430691EEE74F
:105A900010230B93EBE77B1C0C93089BBF00F8587B
:105AA0000EF09CFE0C9F1290013401235B42139375
:105AB000049BA34292D923782E2B17D1049B601C00
:105AC00083428BD963782A2B38D1079BBB42C0D93C
:105AD0007B1C0C93089BBF00F8580EF07FFE0C9FB8
